S0130000736B5F313064615F6E65772E7372656305
S11300000C943C000C94C0070C94D3070C94590036
S11300100C9459000C9459000C9459000C94AD079D
S11300200C9459000C9459000C9474070C94870791
S11300300C949A070C9459000C9445070C9459009D
S11300400C9459000C9459000C946C170C9459009E
S11300500C94A1170C94E6070C9459000C945900C5
S11300600C9459000C945900CD16D016D316D616FC
S1130070141717171A171D1711241FBECFEFD4E03A
S1130080DEBFCDBF11E0A0E0B1E0E8E4F7E302C0D9
S113009005900D92A632B107D9F724E0A6E2B1E0AB
S11300A001C01D92A039B207E1F70E944E160C94CC
S11300B0A21B0C940000CF93DF93CDB7DEB764E0AE
S11300C070E08DE191E00E9407190000DF91CF916B
S11300D00895CF93DF93CDB7DEB78DE00E94FC1770
S11300E08AE00E94FC170000DF91CF910895CF931E
S11300F0DF9300D01F92CDB7DEB79A8389836B83D9
S11301008BE290E02BE230E0F9012081FC012083B6
S11301108B81282F30E089819A81B9010E940719C7
S11301208BE290E02BE230E0F9012081FC01208396
S113013000000F900F900F90DF91CF910895CF930F
S1130140DF93CDB7DEB728970FB6F894DEBF0FBEA6
S1130150CDBF9E838D8378876F831A8219828981AC
S11301609A812D813E81820F931F0E946D19882FE1
S113017090E09C838B838B819C81181619067CF7F5
S113018089819A81892B79F089819A812D813E8197
S1130190820F931FFC0180818D3029F40E94690035
S11301A089819A810EC089819A8101969A83898373
S11301B029813A818F8198852817390784F28981AA
S11301C09A8128960FB6F894DEBF0FBECDBFDF919B
S11301D0CF910895CF93DF93CDB7DEB727970FB6AE
S11301E0F894DEBF0FBECDBF9C838B837E836D836B
S11301F04F831A8219821A8219821AC089819A81BC
S11302002B813C81820F931FFC01408189819A815B
S11302102D813E81820F931FFC018081481719F0C4
S113022080E090E00FC089819A8101969A83898346
S11302308F81282F30E089819A8182179307F4F205
S113024081E090E027960FB6F894DEBF0FBECDBFD5
S1130250DF91CF910895CF93DF9300D000D000D0E9
S1130260CDB7DEB79C838B837E836D831A8219821C
S113027019C089819A812B813C81820F931FFC01D3
S1130280408189819A812D813E81820F931FFC01D7
S11302908081481711F080E01AC089819A81019603
S11302A09A83898389819A812B813C81820F931F50
S11302B0FC0180818D30E9F689819A812D813E810E
S11302C0820F931FFC0180818D3099F681E0269680
S11302D00FB6F894DEBF0FBECDBFDF91CF91089566
S11302E0CF93DF9300D000D0CDB7DEB79B838A8352
S11302F06C838C81882F90E08230910519F18330D2
S113030091051CF4019749F022C18330910509F449
S11303104FC0049709F4A3C01AC18A819B81FC01D0
S11303208081803368F08A819B81FC0180818A33DB
S113033038F48A819B81FC0180818053898307C1C1
S11303408FEF06C18A819B81FC0180818033D8F0C4
S11303508A819B81FC0180818A33A8F48A819B81F4
S1130360FC018081882F90E0C097880F982F990F07
S1130370990F890F89838A819B810196FC01808171
S1130380803318F413C08FEFE3C08A819B810196F8
S1130390FC0180818A3350F48A819B810196FC019F
S11303A090818981890F80538983D1C08FEFD0C018
S11303B08A819B81FC0180818033D8F08A819B8172
S11303C0FC0180818A33A8F48A819B81FC018081AD
S11303D0882F90E0C097982F84E6989F802D112451
S11303E089838A819B810196FC018081803318F482
S11303F021C08FEFADC08A819B810196FC01808171
S11304008A33C0F48A819B810196FC018081882F04
S113041090E0C097880F982F990F990F890F9981B1
S1130420890F89838A819B810296FC0180818033B4
S113043018F413C08FEF8CC08A819B810296FC0153
S113044080818A3350F48A819B810296FC019081D9
S11304508981890F805389837AC08FEF79C08A811B
S11304609B81FC0180818033D8F08A819B81FC01CF
S113047080818A33A8F48A819B81FC018081882F42
S113048090E0C097982F88EE989F802D112489833F
S11304908A819B810196FC018081803318F421C0FC
S11304A08FEF56C08A819B810196FC0180818A333B
S11304B0C0F48A819B810196FC018081882F90E0A1
S11304C0C097982F84E6989F802D11249981890FD5
S11304D089838A819B810296FC018081803318F490
S11304E021C08FEF35C08A819B810296FC018081F7
S11304F08A33C0F48A819B810296FC018081882F13
S113050090E0C097880F982F990F990F890F9981C0
S1130510890F89838A819B810396FC0180818033C2
S113052018F413C08FEF14C08A819B810396FC01D9
S113053080818A3350F48A819B810396FC019081E7
S11305408981890F8053898302C08FEF01C089811B
S11305500F900F900F900F90DF91CF910895CF934C
S1130560DF9300D01F92CDB7DEB79B838A838A8145
S11305709B81FC018081803368F08A819B81FC012E
S113058080818A3338F48A819B81FC018081805385
S1130590898315C08A819B81FC018081813468F044
S11305A08A819B81FC018081873438F48A819B8114
S11305B0FC0180818753898302C08FEF37C0898112
S11305C08295807F89838A819B810196FC01808149
S11305D0803388F08A819B810196FC0180818A3373
S11305E050F48A819B810196FC0190818981890F55
S11305F0805389831AC08A819B810196FC01808182
S1130600813488F08A819B810196FC018081873442
S113061050F48A819B810196FC0190818981890F24
S11306208753898302C08FEF01C089810F900F9097
S11306300F90DF91CF910895CF93DF9300D000D036
S1130640CDB7DEB79A8389837C836B8389819A8152
S11306509695879596958795969587959C01A5EC93
S1130660B0E20E94501B929582958F7089279F70EB
S1130670892720E3280F8B819C81FC0120834981F9
S11306805A81CA01969587959695879596958795EB
S11306909C01A5ECB0E20E94501BBC0172956295CE
S11306A06F7067277F70672728EE33E0629FC00171
S11306B0639F900D729F900D11249A01281B390B92
S11306C0C9019A8389838B819C81AC014F5F5F4F01
S11306D089819A8196958795969587959C01ABE734
S11306E0B4E10E94501B96958795805DFA01808342
S11306F049815A81CA0196958795969587959C015B
S1130700ABE7B4E10E94501B9C013695279564E643
S1130710629FC001639F900D11249A01281B390B1D
S1130720C9019A8389838B819C81AC014E5F5F4FA1
S113073089819A819C01ADECBCEC0E94501B96957A
S113074087959695879596958795805DFA01808320
S113075049815A819A01ADECBCEC0E94501B9695DC
S113076087959695879596958795880F991F9C01EF
S1130770220F331F220F331F820F931F9A01281B4E
S1130780390BC9019A8389838B819C8103962981C2
S1130790205DFC01208300000F900F900F900F90BC
S11307A0DF91CF910895CF93DF9300D000D0CDB7E0
S11307B0DEB78A837C836B838A8182958F70898379
S11307C089818A3020F0898127E3280F03C0898139
S11307D020E3280F8B819C81FC0120838A818F7008
S11307E089838B819C81019629812A3018F0298183
S11307F0295C02C02981205DFC01208300000F9048
S11308000F900F900F90DF91CF910895CF93DF93C6
S113081000D000D0CDB7DEB79C838B831A821982B7
S113082089819A812B813C81820F931FFC018081F5
S11308308136E0F089819A812B813C81820F931F5C
S1130840FC0180818B3790F489819A812B813C81D2
S1130850820F931F29813A814B815C81240F351FBC
S1130860F90120812052FC0120830AC089819A81E8
S11308702B813C81820F931FFC018081893E59F0BA
S113088089819A8101969A83898389819A8185369F
S113089091051CF4C5CF000001C0000000000F90BA
S11308A00F900F900F90DF91CF910895CF93DF9326
S11308B0CDB7DEB788EB90E02CE0FC0120838CEB15
S11308C090E024E0FC0120830000DF91CF910895A3
S11308D0CF93DF9300D0CDB7DEB78A838CEB90E063
S11308E0FC0110828CEB90E024EAFC01208301C01F
S11308F0A8958CEB90E0FC0180818823CCF789EBF0
S113090090E0FC018081882F90E0887F99270897E8
S113091011F081E021C08BEB90E02A81FC0120835F
S11309208CEB90E024E8FC01208301C0A8958CEBBB
S113093090E0FC0180818823CCF789EB90E0FC01F6
S11309408081887F89838981883129F089818034F5
S113095011F081E001C080E00F900F90DF91CF9102
S11309600895CF93DF931F92CDB7DEB789838BEBC6
S113097090E02981FC0120838CEB90E024E8FC01C9
S1130980208301C0A8958CEB90E0FC018081882332
S1130990CCF789EB90E0FC018081882F90E0887F80
S11309A09927889711F081E001C080E00F90DF91D2
S11309B0CF910895CF93DF93CDB7DEB78CEB90E062
S11309C024ECFC01208301C0A8958CEB90E0FC0191
S11309D080818823CCF78BEB90E0FC018081DF9150
S11309E0CF910895CF93DF93CDB7DEB78CEB90E032
S11309F024E8FC01208301C0A8958CEB90E0FC0165
S1130A0080818823CCF78BEB90E0FC018081DF911F
S1130A10CF910895CF93DF93CDB7DEB727970FB665
S1130A20F894DEBF0FBECDBF8B837D836C835F8361
S1130A304E838B810E946804882311F081E020C0DA
S1130A401A82198213C02C813D8189819A81820F77
S1130A50931FFC0180810E94B104882311F081E07E
S1130A600FC089819A8101969A83898329813A8169
S1130A708E819F812817390730F30E94380780E060
S1130A8027960FB6F894DEBF0FBECDBFDF91CF918E
S1130A9008950F931F93CF93DF93CDB7DEB72797B6
S1130AA00FB6F894DEBF0FBECDBF8B837D836C83FE
S1130AB05F834E838B8181600E946804882311F0D8
S1130AC081E02CC01A82198210C02C813D81898159
S1130AD09A818901080F191F0E94DA04F8018083A2
S1130AE089819A8101969A8389838E819F819C0151
S1130AF02150310989819A818217930730F38E81BD
S1130B009F8101972C813D818901080F191F0E9443
S1130B10F204F80180830E94380780E027960FB61C
S1130B20F894DEBF0FBECDBFDF91CF911F910F911F
S1130B300895CF93DF93CDB7DEB7A6970FB6F89499
S1130B40DEBF0FBECDBF88A37AA369A35CA34BA36A
S1130B503EA32DA319827BC088A10E946804882328
S1130B6009F47AC080E090E0A0E8BFE38887998721
S1130B70AA87BB8720E030E04AEF54E46885798592
S1130B808A859B850E94861ADC01CB018C879D8710
S1130B90AE87BF8720E030E040E85FE36C857D8569
S1130BA08E859F850E94001A88232CF481E090E0B2
S1130BB0998B888B3FC020E03FEF4FE757E46C856B
S1130BC07D858E859F850E94811A18164CF520E03C
S1130BD030E040E251E4688579858A859B850E94EE
S1130BE0861ADC01CB01BC01CD010E94051ADC018F
S1130BF0CB01998B888B0FC088EC90E09B8B8A8B00
S1130C008A899B890197F1F79B8B8A8B88899989BB
S1130C100197998B888B88899989892B69F714C0E6
S1130C206C857D858E859F850E94051ADC01CB012C
S1130C30998B888B888999899D8B8C8B8C899D89CC
S1130C400197F1F79D8B8C8B89818F5F89838981D3
S1130C508A3008F481CF01C0000089818A3010F005
S1130C6081E09BC089A19AA1892F99270E94B10490
S1130C7089A10E94B1041B821A8213C02BA13CA13A
S1130C808A819B81820F931FFC0180810E94B104A1
S1130C90882311F081E081C08A819B8101969B8326
S1130CA08A832A813B818DA19EA12817390730F3BD
S1130CB00E94380780E090E0A0E8BFE38C839D8326
S1130CC0AE83BF8320E030E04AEF54E46C817D8141
S1130CD08E819F810E94861ADC01CB018E8B9F8BB3
S1130CE0A88FB98F20E030E040E85FE36E897F8908
S1130CF0888D998D0E94001A88232CF481E090E05D
S1130D009B8F8A8F3FC020E03FEF4FE757E46E8907
S1130D107F89888D998D0E94811A18164CF520E0E0
S1130D2030E040E251E46C817D818E819F810E949C
S1130D30861ADC01CB01BC01CD010E94051ADC013D
S1130D40CB019B8F8A8F0FC088EC90E09D8F8C8F96
S1130D508C8D9D8D0197F1F79D8F8C8F8A8D9B8D46
S1130D6001979B8F8A8F8A8D9B8D892B69F714C07D
S1130D706E897F89888D998D0E94051ADC01CB01CB
S1130D809B8F8A8F8A8D9B8D9F8F8E8F8E8D9F8D4B
S1130D900197F1F79F8F8E8F80E0A6960FB6F89497
S1130DA0DEBF0FBECDBFDF91CF9108950F931F9388
S1130DB0CF93DF93CDB7DEB729970FB6F894DEBF94
S1130DC00FBECDBF8B837D836C835F834E83398756
S1130DD028878B810E946804882311F081E03DC03C
S1130DE08C819D81892F99270E94B1048C810E9456
S1130DF0B1048B8181600E946804882311F081E032
S1130E002CC01A82198210C02E813F8189819A8157
S1130E108901080F191F0E94DA04F801808389816F
S1130E209A8101969A838983888599859C012150AA
S1130E30310989819A818217930730F388859985CE
S1130E4001972E813F818901080F191F0E94F20426
S1130E50F80180830E94380780E029960FB6F89441
S1130E60DEBF0FBECDBFDF91CF911F910F910895CB
S1130E70CF93DF93CDB7DEB78CEB90E024E9FC0190
S1130E8020830000DF91CF9108951F920F9200906C
S1130E905F000F9211248F93CF93DF93CDB7DEB70A
S1130EA08091F5018F5F8093F50181E080937D014E
S1130EB080916D018F3F29F080916D018F5F809348
S1130EC06D018091F7038F3F29F08091F7038F5FC5
S1130ED08093F7030000DF91CF918F910F900092E0
S1130EE05F000F901F9018951F920F9200905F0063
S1130EF00F921124CF93DF93CDB7DEB70000DF91BB
S1130F00CF910F9000925F000F901F9018951F9241
S1130F100F9200905F000F921124CF93DF93CDB70F
S1130F20DEB70000DF91CF910F9000925F000F9029
S1130F301F9018951F920F9200905F000F9211243A
S1130F40CF93DF93CDB7DEB70000DF91CF910F9041
S1130F5000925F000F901F9018951F920F920090BF
S1130F605F000F921124CF93DF93CDB7DEB700005B
S1130F70DF91CF910F9000925F000F901F90189512
S1130F801F920F9200905F000F921124CF93DF9372
S1130F90CDB7DEB70000DF91CF910F9000925F00D4
S1130FA00F901F9018951F920F9200905F000F9260
S1130FB01124CF93DF93CDB7DEB70000DF91CF913B
S1130FC00F9000925F000F901F9018951F920F9240
S1130FD000905F000F921124CF93DF93CDB7DEB75B
S1130FE00000DF91CF910F9000925F000F901F904F
S1130FF01895CF93DF9300D0CDB7DEB79A8389835A
S113100089819A810E948C1B0F900F90DF91CF9160
S11310100895CF93DF9300D01F92CDB7DEB79A83A4
S113102089836B838FE390E0FC018081882F90E0BB
S113103082709927892BB1F789819A816B810E94EB
S1131040941B00000F900F900F90DF91CF910895A3
S1131050CF93DF93CDB7DEB78091AF039091B00308
S1131060909381018093800180918001682F80E0BA
S113107090E00E94090880918101682F81E090E04E
S11310800E940908A8958091B1039091B2039093AE
S113109081018093800180918001682F82E090E03B
S11310A00E94090880918101682F83E090E00E94EA
S11310B00908A8958091B3039091B403909381019A
S11310C08093800180918001682F84E090E00E94E9
S11310D0090880918101682F85E090E00E94090849
S11310E0A8958091B5039091B60390938101809364
S11310F0800180918001682F86E090E00E940908B9
S113110080918101682F87E090E00E940908A895EA
S1131110809117039091180390938101809380012B
S113112080918001682F88E090E00E9409088091F6
S11311308101682F89E090E00E940908A8958091B8
S1131140190390911A0390938101809380018091F7
S11311508001682F8AE090E00E9409088091810153
S1131160682F8BE090E00E940908A89580911B03EA
S113117090911C0390938101809380018091800160
S1131180682F8CE090E00E94090880918101682F0B
S11311908DE090E00E940908A89580911D0390912C
S11311A01E03909381018093800180918001682FB8
S11311B08EE090E00E94090880918101682F8FE001
S11311C090E00E94090880910802682F84E690E06C
S11311D00E940908A8950000DF91CF910895CF934C
S11311E0DF93CDB7DEB780E090E00E94F9078093EB
S11311F0800181E090E00E94F90780938101809151
S11312008001909181010196B9F58CED95E0909360
S1131210B0038093AF0380EC98E09093B203809383
S1131220B10388EF92E09093B4038093B30380EE0C
S113123091E09093B6038093B50384E991E1909390
S11312401803809317038CEF98E090931A0380930C
S1131250190384E393E090931C0380931B038EEFA4
S113126091E090931E0380931D0382E38093080210
S1131270A8950E942808C0C08091800190918101A6
S11312809093B0038093AF03A89582E090E00E940E
S1131290F9078093800183E090E00E94F90780932E
S11312A0810180918001909181019093B203809398
S11312B0B103A89584E090E00E94F907809380012F
S11312C085E090E00E94F90780938101809180017C
S11312D0909181019093B4038093B303A89586E021
S11312E090E00E94F9078093800187E090E00E94DB
S11312F0F9078093810180918001909181019093FD
S1131300B6038093B503A89588E090E00E94F9079E
S11313108093800189E090E00E94F9078093810125
S11313208091800190918101909318038093170319
S1131330A8958AE090E00E94F907809380018BE0F1
S113134090E00E94F907809381018091800190913F
S1131350810190931A0380931903A8958CE090E07F
S11313600E94F907809380018DE090E00E94F907C4
S113137080938101809180019091810190931C035D
S113138080931B03A8958EE090E00E94F907809358
S113139080018FE090E00E94F907809381018091A1
S11313A080019091810190931E0380931D03A89561
S11313B084E690E00E94F9078093080280E094E0BC
S11313C09093100280930F0280E094E090931202B5
S11313D08093110280E094E09093140280931302AE
S11313E088E893E190930B0280930A028DE790E0E2
S11313F090930D0280930C02DF91CF910895CF93C7
S1131400DF93CDB7DEB785E590E0FC01108284E57B
S113141090E024E530E0F9012081277FFC0120835E
S113142080E690E020E630E0F90120812861FC01AB
S1131430208380E690E02DE0FC01208384E290E0AC
S113144023EDFC01208385E290E0FC01108287E219
S113145090E020E1FC01208388E290E02FE0FC0191
S113146020838AE290E02AEFFC0120838BE290E063
S113147021E8FC01208380E590E020E6FC01208344
S11314808AE790E02FE0FC01208384E490E022E0EE
S1131490FC01208385E490E025E0FC01208387E4BF
S11314A090E027E2FC01208388E490E028E1FC013D
S11314B020838EE690E022E0FC01208380E890E027
S11314C0FC01108281E890E023E8FC01208382E89B
S11314D090E0FC01108288E890E02FEF3FEFFC01E0
S11314E0318320838AE890E02FEF3FEFFC013183C2
S11314F0208386E890E0FC01118210828FE690E060
S113150020E2FC01208383E490E0FC01108286EB5E
S113151090E0FC01108280EB90E023E0FC0120834A
S113152081EB90E02DE0FC01208383EB90E024E646
S1131530FC01208384EB90E024E6FC01208382EB11
S113154090E0FC01108280E790E0FC01108280ECC6
S113155090E0FC01108289E690E02AE0FC012083FF
S11315608DE390E023E0FC01208388E690E024E012
S1131570FC0120838BE690E0FC0110828CE690E075
S1131580FC0110828DE690E0FC0110828CE790E073
S113159027E2FC0120838AE790E02FE0FC0120830E
S11315A08BE790E020E4FC01208381E090E0DF9170
S11315B0CF910895CF93DF93CDB7DEB700008FEFBF
S11315C080932A0190917B018091F501981751F144
S11315D08091F50180937B018091F6018F5F809368
S11315E0F6019091F6018DEC989F812D112486953A
S11315F086958695880F282F220F220F820F292F78
S1131600281B822F882319F481E080939E01809106
S1131610F601843638F080910E028F5F80930E02BB
S11316201092F6010000DF91CF910895CF93DF93DC
S1131630CDB7DEB70000DF91CF910895CF93DF934C
S1131640CDB7DEB70000DF91CF910895CF93DF933C
S1131650CDB7DEB780E0DF91CF910895CF93DF93CC
S1131660CDB7DEB784E98093F7018091F7018093C9
S1131670F80341E050E068EF73E080ED0E940A0552
S113168041E050E068EF73E084ED0E940A0587E2D0
S113169091E090938101809380011092F8038091EE
S11316A081018093F903809180018093FA0343E0E0
S11316B050E068EF73E080E80E940A050000DF91C3
S11316C0CF910895CF93DF93CDB7DEB743E050E0D9
S11316D068EF73E080ED0E9449058091F9038093DF
S11316E080018091F8038093810180917E01482FCD
S11316F050E080912C0186958695882F90E020916A
S1131700800130918101440F551F440F551F440F30
S1131710551F840F951F880F991F80569E4FFC01FB
S11317203183208343E050E068EF73E084ED0E944E
S113173049058091F903809380018091F803809397
S1131740810180917E01482F50E080912C01869583
S11317508695882F90E02091800130918101440F7B
S1131760551F440F551F440F551F840F951F880F95
S1131770991F89549C4FFC013183208381E080931D
S1131780F80341E050E068EF73E080E80E940A0546
S113179042E050E068EF73E080E80E9449058091E0
S11317A0F903809380018091F803809381018091F3
S11317B02C01882F90E02091800130918101880FC5
S11317C0991F895E9D4FFC013183208382E08093C1
S11317D0F80341E050E068EF73E080E80E940A05F6
S11317E042E050E068EF73E080E80E944905809190
S11317F0F903809380018091F803809381018091A3
S11318002C0186958695882F90E020918001309157
S11318108101880F991F88509E4FFC0131832083DA
S113182081E08093820180912C018F3130F480918A
S11318302C018F5F80932C0102C010922C018091A7
S11318402C01837080937E0180917E018770982F94
S11318509295990F907E8091F701890F8093F803F8
S113186041E050E068EF73E080ED0E940A0541E03A
S113187050E068EF73E084ED0E940A050000DF91F8
S1131880CF9108950F931F93CF93DF93CDB7DEB716
S11318902A970FB6F894DEBF0FBECDBF8BE290E05F
S11318A02BE230E0F90120812061FC0120831982C0
S11318B06FC08981882F90E082959295907F9827B8
S11318C0807F982780569E4F9A8789871A821D8227
S11318D01E821F8218861FC08A81882F90E0880F7D
S11318E0991F29853A85820F931FFC01808191817C
S11318F0092E000CAA0BBB0B2D813E814F8158850C
S1131900820F931FA41FB51F8D839E83AF83B88757
S11319108A818F5F8A838A818830F0F28981882F57
S113192090E0880F991F815F9D4FFC018081918118
S1131930092E000CAA0BBB0B2D813E814F815885CB
S1131940BC01CD010E941B1BDC01CB018D839E8356
S1131950AF83B8878981082F10E08D819E81AF8184
S1131960B88520E030E540E050E0BC01CD010E94A4
S11319702B1BDA01C9019C01C8010496880F991F29
S11319808D579E4FFC013183208389818F5F89832A
S11319908981843008F48DCF19826FC08981882FA2
S11319A090E082959295907F9827807F982789541C
S11319B09C4F9A8789871A821D821E821F821886ED
S11319C01FC08A81882F90E0880F991F29853A8546
S11319D0820F931FFC0180819181092E000CAA0BB8
S11319E0BB0B2D813E814F815885820F931FA41F0D
S11319F0B51F8D839E83AF83B8878A818F5F8A8367
S1131A008A818830F0F28981882F90E0880F991FAD
S1131A108E519E4FFC0180819181092E000CAA0BEE
S1131A20BB0B2D813E814F815885BC01CD010E94A5
S1131A301B1BDC01CB018D839E83AF83B887898117
S1131A40082F10E08D819E81AF81B88520E030E5BC
S1131A5040E050E0BC01CD010E942B1BDA01C9011A
S1131A609C01C8010896880F991F8D579E4FFC0151
S1131A703183208389818F5F89838981843008F44D
S1131A808DCF1A821D821E821F82188627C08A81EA
S1131A90882F90E0880F991F895E9D4FFC018081FB
S1131AA091819C838B838B819C81992314F41C8268
S1131AB01B828B819C81092E000CAA0BBB0B2D81F0
S1131AC03E814F815885820F931FA41FB51F8D83BC
S1131AD09E83AF83B8878A818F5F8A838A818032AD
S1131AE0B0F28D819E81AF81B885BB231CF44F96E3
S1131AF0A11DB11D689414F8B595A7959795879580
S1131B001694D1F79C01AD0180910A0290910B02C9
S1131B10092E000CAA0BBB0BBC01CD010E941B1BA0
S1131B20DC01CB018D839E83AF83B8878D819E8139
S1131B30AF81B8852CED30E040E050E0BC01CD0130
S1131B400E942B1BDA01C9019093840180938301C5
S1131B50809183019091840185379E4058F0809153
S1131B6083019091840184579E40909384018093D3
S1131B70830104C010928401109283011A821D8291
S1131B801E821F8218861DC08A81882F90E0880FCC
S1131B90991F88509E4FFC0180819181092E000C71
S1131BA0AA0BBB0B2D813E814F815885820F931F59
S1131BB0A41FB51F8D839E83AF83B8878A818F5FEF
S1131BC08A838A81883000F380910C0290910D02FF
S1131BD0092E000CAA0BBB0B2D813E814F81588529
S1131BE0BC01CD010E941B1BDC01CB018D839E83B4
S1131BF0AF83B8878D819E81AF81B88520E43FE1B2
S1131C0040E050E0BC01CD010E942B1BDA01C90168
S1131C1090938601809385018BE290E02BE230E083
S1131C20F90120812F7EFC01208300002A960FB643
S1131C30F894DEBF0FBECDBFDF91CF911F910F91FE
S1131C400895CF93DF9300D000D000D0CDB7DEB796
S1131C508091830190918401CC01A0E0B0E08B835A
S1131C609C83AD83BE8380911703909118039C01DC
S1131C70990F440B550B8B819C81AD81BE81281734
S1131C8039074A075B078CF08091AF039091B0034A
S1131C909C01990F440B550B8B819C81AD81BE81B6
S1131CA082179307A407B5071CF481E0898301C058
S1131CB019828AE58093690385EA80936A0385E043
S1131CC080936B0382E880936C0380E580936D03BB
S1131CD083E180936E038981882331F088EF8093B8
S1131CE06F031092700306C087E080936F0380EE49
S1131CF0809370031A820CC08A81882F90E08759E0
S1131D009C4FFC0180810E94FC178A818F5F8A832B
S1131D108A81883088F385E080936B0382E880931E
S1131D206C0310926D0381E480936E0310926F0331
S1131D308981882319F01092700303C081E0809395
S1131D4070031A820CC08A81882F90E087599C4FB7
S1131D50FC0180810E94FC178A818F5F8A838A81BB
S1131D60883088F380918B0190918C01CC01A0E0A4
S1131D70B0E08B839C83AD83BE83809119039091E3
S1131D801A039C01990F440B550B8B819C81AD81E7
S1131D90BE81281739074A075B078CF08091B1038D
S1131DA09091B2039C01990F440B550B8B819C813C
S1131DB0AD81BE8182179307A407B5071CF481E0A7
S1131DC0898301C019828AE58093690385EA809337
S1131DD06A0385E080936B0382E880936C0380E55B
S1131DE080936D0383E280936E038981882331F0AD
S1131DF088EF80936F031092700306C087E080938E
S1131E006F0380EE809370031A820CC08A81882F3E
S1131E1090E087599C4FFC0180810E94FC178A81C5
S1131E208F5F8A838A81883088F385E080936B038F
S1131E3082E880936C0310926D0382E480936E03B6
S1131E4010926F038981882319F01092700303C0E4
S1131E5081E0809370031A820CC08A81882F90E0FD
S1131E6087599C4FFC0180810E94FC178A818F5FF7
S1131E708A838A81883088F380918D0190918E01C4
S1131E80CC01A0E0B0E08B839C83AD83BE838091C2
S1131E901B0390911C039C01990F440B550B8B81E0
S1131EA09C81AD81BE81281739074A075B078CF0F6
S1131EB08091B3039091B4039C01990F440B550B8B
S1131EC08B819C81AD81BE8182179307A407B507DE
S1131ED01CF481E0898301C019828AE58093690337
S1131EE085EA80936A0385E080936B0382E880939C
S1131EF06C0380E580936D0383E380936E03898193
S1131F00882331F088EF80936F031092700306C02A
S1131F1087E080936F0380EE809370031A820CC075
S1131F208A81882F90E087599C4FFC0180810E9410
S1131F30FC178A818F5F8A838A81883088F385E0E1
S1131F4080936B0382E880936C0310926D0383E4A7
S1131F5080936E0310926F038981882319F0109285
S1131F60700303C081E0809370031A820CC08A81DD
S1131F70882F90E087599C4FFC0180810E94FC17B8
S1131F808A818F5F8A838A81883088F380918F0168
S1131F9090919001CC01A0E0B0E08B839C83AD8351
S1131FA0BE8380911D0390911E039C01990F440BE5
S1131FB0550B8B819C81AD81BE81281739074A0757
S1131FC05B078CF08091B5039091B6039C01990F47
S1131FD0440B550B8B819C81AD81BE818217930785
S1131FE0A407B5071CF481E0898301C019828AE53E
S1131FF08093690385EA80936A0385E080936B0389
S113200082E880936C0380E580936D0383E480937E
S11320106E038981882331F088EF80936F031092D7
S1132020700306C087E080936F0380EE8093700393
S11320301A820CC08A81882F90E087599C4FFC013A
S113204080810E94FC178A818F5F8A838A8188300D
S113205088F385E080936B0382E880936C0310928D
S11320606D0384E480936E0310926F038981882347
S113207019F01092700303C081E0809370031A82F8
S11320800CC08A81882F90E087599C4FFC01808185
S11320900E94FC178A818F5F8A838A81883088F343
S11320A0000026960FB6F894DEBF0FBECDBFDF91B9
S11320B0CF910895CF93DF931F92CDB7DEB78AE512
S11320C08093690385EA80936A038BE080936B03B2
S11320D082E880936C0381E080936D0310926E0319
S11320E08091AF039091B00390938101809380011C
S11320F08091810180936F038091800180937003AC
S11321008091B1039091B2039093810180938001F7
S11321108091810180937103809180018093720387
S11321208091B3039091B4039093810180938001D3
S11321308091810180937303809180018093740363
S11321408091B5039091B6039093810180938001AF
S1132150809181018093750380918001809376033F
S1132160A89519820CC08981882F90E087599C4FCB
S1132170FC0180810E94FC1789818F5F898389819A
S11321808E3088F38AE58093690385EA80936A0335
S11321908BE080936B0382E880936C0381E08093EF
S11321A06D0380E180936E0380911703909118036F
S11321B090938101809380018091810180936F03CA
S11321C080918001809370038091190390911A0388
S11321D090938101809380018091810180937103A8
S11321E0809180018093720380911B0390911C0362
S11321F09093810180938001809181018093730386
S1132200809180018093740380911D0390911E033B
S11322109093810180938001809181018093750363
S1132220809180018093760319820CC08981882F64
S113223090E087599C4FFC0180810E94FC178981A2
S11322408F5F898389818E3088F3A8958AE580938E
S1132250690385EA80936A0385E080936B0382E8CF
S113226080936C0381E080936D0380E280936E031E
S113227080910802882F90E09093810180938001DF
S113228010926F03809108028093700319820CC02E
S11322908981882F90E087599C4FFC0180810E949E
S11322A0FC1789818F5F89838981883088F30000D6
S11322B00F90DF91CF910895CF93DF9300D0CDB7E6
S11322C0DEB78DE991E00E946D198A838A818823A3
S11322D009F460C0809171018823B1F480919D015B
S11322E0853A69F480912B018A3549F481E0809321
S11322F0710186E080939B0110926D014BC0809127
S11323009D0180932B0146C080917201882F90E03B
S113231020919D01875D9C4FFC0120838091720177
S1132320843039F480919D01880F8C5F80939B01E8
S113233024C09091720180919B019817F1F410923E
S1132340720110927101198211C08981882F90E065
S11323502981222F30E0275D3C4FF9012081835DE4
S11323609E4FFC01208389818F5F898380919B012B
S11323709981891750F781E00EC0809172018F5FB7
S11323808093720180916D018B3020F01092720164
S11323901092710180E00F900F90DF91CF9108951A
S11323A0CF93DF931F92CDB7DEB78AE5809369039D
S11323B085EA80936A038BE080936B0382E88093C1
S11323C06C0310926D0310926E03809185019091BD
S11323D08601909381018093800180918101809393
S11323E06F038091800180937003809183019091A9
S11323F08401909381018093800180918101809375
S11324007103809180018093720380918B0190917C
S11324108C0190938101809380018091810180934C
S11324207303809180018093740380918D01909156
S11324308E0190938101809380018091810180932A
S11324407503809180018093760319820DC0898180
S1132450882F90E087599C4FFC0180810E94FC17D3
S1132460A89589818F5F898389818E3080F380E18B
S113247080936E0380918F019091900190938101DC
S1132480809380018091810180936F03809180010A
S113249080937003809193019091940190938101B2
S11324A080938001809181018093710380918001E8
S11324B0809372038091950190919601909381018C
S11324C080938001809181018093730380918001C6
S11324D08093740380919701909198019093810166
S11324E080938001809181018093750380918001A4
S11324F08093760319820DC08981882F90E08759D3
S11325009C4FFC0180810E94FC17A89589818F5FF4
S1132510898389818E3080F300000F90DF91CF9101
S11325200895CF93DF9300D01F92CDB7DEB780918B
S11325302E01833809F079C380910902813019F49E
S11325401092090272C380912D01863009F06CC388
S1132550809130018093800180912F0180938101CB
S113256080918001909181019B838A838A819B81E0
S11325704E9759F480913301813009F056C381E0BC
S11325808093F3010E945A1050C38A819B8189333E
S1132590914059F480913301813011F40E9428084C
S11325A01092F3010E94D01140C38A819B81803331
S11325B0914009F058C080913301882381F48091BF
S11325C0AF039091B0030B97D4F08091AF03909137
S11325D0B0030A979093B0038093AF0310C0809127
S11325E0AF039091B003863295474CF48091AF03CA
S11325F09091B0030A969093B0038093AF038AE559
S11326008093690385EA80936A0385E080936B0372
S113261082E880936C0381E080936D0310926E03D3
S11326208091AF039091B0039093810180938001D6
S11326308091810180936F03809180018093700366
S1132640A89519820CC08981882F90E087599C4FE6
S1132650FC0180810E94FC1789818F5F89838981B5
S1132660883088F3E2C28A819B818133914009F0EA
S113267059C080913301882381F48091B1039091F2
S1132680B2030B97D4F08091B1039091B2030A97EF
S11326909093B2038093B10310C08091B1039091E1
S11326A0B203863295474CF48091B1039091B20302
S11326B00A969093B2038093B1038AE580936903E9
S11326C085EA80936A0385E080936B0382E88093B4
S11326D06C0381E080936D0381E080936E038091AD
S11326E0B1039091B2039093810180938001809112
S11326F0810180936F038091800180937003A8957A
S113270019820CC08981882F90E087599C4FFC0165
S113271080810E94FC1789818F5F89838981883039
S113272088F383C28A819B818233914009F059C026
S113273080913301882381F48091B3039091B40391
S11327400B97D4F08091B3039091B4030A979093BC
S1132750B4038093B30310C08091B3039091B40386
S1132760863295474CF48091B3039091B4030A9652
S11327709093B4038093B3038AE58093690385EA55
S113278080936A0385E080936B0382E880936C03F3
S113279081E080936D0382E080936E038091B303A4
S11327A09091B40390938101809380018091810181
S11327B080936F038091800180937003A8951982A0
S11327C00CC08981882F90E087599C4FFC0180813F
S11327D00E94FC1789818F5F89838981883088F3FF
S11327E024C28A819B818333914009F059C080912E
S11327F03301882381F48091B5039091B6030B973C
S1132800D4F08091B5039091B6030A979093B603E0
S11328108093B50310C08091B5039091B6038632BE
S113282095474CF48091B5039091B6030A96909322
S1132830B6038093B5038AE58093690385EA8093A0
S11328406A0385E080936B0382E880936C0381E0E4
S113285080936D0383E080936E038091B503909120
S1132860B6039093810180938001809181018093CC
S11328706F038091800180937003A89519820CC026
S11328808981882F90E087599C4FFC0180810E94A8
S1132890FC1789818F5F89838981883088F3C5C15A
S11328A08A819B818533914009F059C0809133011D
S11328B0882381F480911703909118030B97D4F027
S11328C080911703909118030A97909318038093AB
S11328D0170310C08091170390911803863295470F
S11328E04CF480911703909118030A96909318035F
S11328F0809317038AE58093690385EA80936A03CA
S113290085E080936B0382E880936C0381E080937D
S11329106D0380E180936E038091170390911803F7
S113292090938101809380018091810180936F0352
S11329308091800180937003A89519820CC08981CD
S1132940882F90E087599C4FFC0180810E94FC17DE
S113295089818F5F89838981883088F366C18A8100
S11329609B818633914009F059C0809133018823BB
S113297081F48091190390911A030B97D4F08091FC
S1132980190390911A030A9790931A0380931903D9
S113299010C08091190390911A03863295474CF424
S11329A08091190390911A030A9690931A038093C5
S11329B019038AE58093690385EA80936A0385E0B5
S11329C080936B0382E880936C0381E080936D03B2
S11329D081E180936E038091190390911A0390937F
S11329E08101809380018091810180936F038091A4
S11329F0800180937003A89519820CC08981882F67
S1132A0090E087599C4FFC0180810E94FC178981CA
S1132A108F5F89838981883088F307C18A819B818C
S1132A208733914009F059C080913301882381F4A0
S1132A3080911B0390911C030B97D4F080911B038E
S1132A4090911C030A9790931C0380931B0310C05E
S1132A5080911B0390911C03863295474CF480911E
S1132A601B0390911C030A9690931C0380931B03F1
S1132A708AE58093690385EA80936A0385E08093FD
S1132A806B0382E880936C0381E080936D0382E1A1
S1132A9080936E0380911B0390911C03909381019A
S1132AA0809380018091810180936F0380918001E4
S1132AB080937003A89519820CC08981882F90E0B7
S1132AC087599C4FFC0180810E94FC1789818F5F8C
S1132AD089838981883088F3A8C08A819B8188335F
S1132AE0914009F059C080913301882381F4809189
S1132AF01D0390911E030B97D4F080911D039091B8
S1132B001E030A9790931E0380931D0310C08091A7
S1132B101D0390911E03863295474CF480911D034A
S1132B2090911E030A9690931E0380931D038AE5D9
S1132B308093690385EA80936A0385E080936B033D
S1132B4082E880936C0381E080936D0383E180933A
S1132B506E0380911D0390911E03909381018093D5
S1132B6080018091810180936F0380918001809323
S1132B707003A89519820CC08981882F90E0875929
S1132B809C4FFC0180810E94FC1789818F5F89839F
S1132B908981883088F349C08A819B81843391403C
S1132BA009F043C080913301882351F480910802D5
S1132BB0853178F0809108028A508093080209C018
S1132BC080910802803F28F480910802865F8093F8
S1132BD008028AE58093690385EA80936A0385E0A5
S1132BE080936B0382E880936C0381E080936D0390
S1132BF080E280936E0310926F03809108028093A9
S1132C007003A89519820CC08981882F90E0875998
S1132C109C4FFC0180810E94FC1789818F5F89830E
S1132C208981883088F301C000000F900F900F90C5
S1132C30DF91CF910895CF93DF93CDB7DEB7109294
S1132C407B011092F50180E091E090932003809342
S1132C501F038FEF80932A0110922C0180912C0185
S1132C6080937E0110929E011092AD031092710127
S1132C7010927C0110927D011092090210929F0122
S1132C8010929C0180919C018093F4011092F301B5
S1132C900E94EF080000DF91CF910895CF93DF9356
S1132CA000D0CDB7DEB70E94FF09A8950E94D019C5
S1132CB00E9456040E941B1678941092F703809188
S1132CC0F703853610F4A895FACF00000E942E0B66
S1132CD01982A8950E945C118A838A81882311F045
S1132CE00E94911280917D01813099F78091F301C6
S1132CF0813079F310927D0189818F5F8983898185
S1132D00843658F0198285E290E025E230E0F9013A
S1132D1020812160FC0120830CC08981823349F425
S1132D2085E290E025E230E0F90120812E7FFC016C
S1132D30208389E290E0FC018081882F90E08470F8
S1132D409927892B51F480919F01823378F48091E3
S1132D509F018F5F80939F0109C080919F01882309
S1132D6029F080919F01815080939F018091AE034F
S1132D70882F90E0092E000CAA0BBB0B40E050E01A
S1132D8027E030E0841B950B2817390708F492C01C
S1132D908C5C9F4FFC010C944A1B0E94620B8FC0F9
S1132DA00E94420C8CC00E94D01189C00E94210E46
S1132DB08091F401882369F480919F01823348F063
S1132DC081E08093F4011092F70381E080939C01E9
S1132DD00CC08091F401813041F480919F018033D3
S1132DE020F41092F40110929C0180919C01813096
S1132DF051F48BE290E02BE230E0F90120812F774F
S1132E00FC01208359C09091F7038091080289172F
S1132E1008F052C08BE290E02BE230E0F90120810F
S1132E202068FC01208348C00E94620B48C00E94B5
S1132E30420C45C00E94D01142C00E94210E8091D4
S1132E40F401882369F480919F01823348F081E082
S1132E508093F40181E080939C011092F7030CC0ED
S1132E608091F401813041F480919F01803320F4FA
S1132E701092F40110929C0180919C01813051F4D4
S1132E808BE290E02BE230E0F90120812F77FC0106
S1132E90208314C09091F70380910802891770F47D
S1132EA08BE290E02BE230E0F90120812068FC0104
S1132EB0208304C0000003C0000001C00000809112
S1132EC0AE038F5F8093AE038091AE03883008F425
S1132ED000CF1092AE03FDCE1F920F9200905F00C0
S1132EE00F9211242F933F938F939F93EF93FF930C
S1132EF0CF93DF93CDB7DEB78091FE0391E0980FB7
S1132F009093FE03882F90E026EC30E0F9012081B5
S1132F108C5F9B4FFC0120838091FE038A3010F06C
S1132F201092FE030000DF91CF91FF91EF919F91EA
S1132F308F913F912F910F9000925F000F901F90FF
S1132F4018951F920F9200905F000F9211242F93F7
S1132F503F934F935F938F939F93EF93FF93CF93FD
S1132F60DF93CDB7DEB7809103048823E9F086ECC4
S1132F7090E04091FF03509100042091FC0331E064
S1132F80320F3093FC03222F30E0240F351FF90158
S1132F902081FC0120839091FC0380918E0498177A
S1132FA068F0109203040AC081E0809328018091A4
S1132FB001049091020421E0FC0120830000DF91D0
S1132FC0CF91FF91EF919F918F915F914F913F919D
S1132FD02F910F9000925F000F901F901895CF9340
S1132FE0DF93CDB7DEB70000809128018823E1F399
S1132FF00000DF91CF910895CF93DF931F92CDB757
S1133000DEB7898380912801813011F0A895FACF29
S113301000001092280186EC90E02981FC012083B5
S113302000000F90DF91CF910895CF93DF9300D0EC
S1133030CDB7DEB78A838A8182958F70898389812F
S1133040882F90E0845F9E4FFC0180810E94FC17D2
S11330508A818F7089838981882F90E0845F9E4F55
S1133060FC0180810E94FC1700000F900F90DF91FB
S1133070CF910895CF93DF9300D0CDB7DEB78A8385
S11330809A8189E2989F812D112482958F7089837A
S11330908981882F90E0845F9E4FFC0180810E948B
S11330A0FC178A8199E2899F912D1124292F229559
S11330B02F7094E6299F902D1124891B898399816F
S11330C08DEC989F812D1124869586958695882F61
S11330D090E0845F9E4FFC0180810E94FC179981DF
S11330E08DEC989F812D1124869586958695880F61
S11330F0282F220F220F820FF92FF81B8F2F882FD2
S113310090E0845F9E4FFC0180810E94FC170000C8
S11331100F900F90DF91CF910895CF93DF9300D05C
S1133120CDB7DEB78A838A8182958F708F70898349
S11331308981882F90E0845F9E4FFC0180810E94EA
S1133140FC178A818F7089838981882F90E0845F3E
S11331509E4FFC0180810E94FC1700000F900F908D
S1133160DF91CF910895CF93DF9300D01F92CDB715
S1133170DEB79B838A8319820EC0898191E0980F00
S11331809983882F90E02A813B81820F931FFC0151
S113319080810E94FC178981882F90E02A813B81DD
S11331A0820F931FFC018081882339F700000F9060
S11331B00F900F90DF91CF910895CF93DF9300D0BC
S11331C01F92CDB7DEB79B838A8319820EC0898193
S11331D091E0980F9983882F90E02A813B81820F98
S11331E0931FFC0180810E94FC178981882F90E045
S11331F02A813B81820F931FFC018081882339F748
S113320000000F900F900F90DF91CF910895CF930E
S1133210DF9300D000D000D0CDB7DEB79C838B8382
S11332207E836D831A8219820FC02B813C81898130
S11332309A81820F931FFC0180810E94FC1789816F
S11332409A8101969A83898329813A818D819E810D
S11332502817390750F3000026960FB6F894DEBFFE
S11332600FBECDBFDF91CF910895CF93DF9300D0F0
S113327000D000D0CDB7DEB79A8389837C836B837B
S11332805E834D8389819A81909300048093FF0328
S11332908B8180938E0481E08093FC03109228013B
S11332A081E0809303048D819E8190930204809336
S11332B0010486EC90E02091FF0330910004F901B1
S11332C02081FC012083000026960FB6F894DEBF0F
S11332D00FBECDBFDF91CF910895CF93DF9300D080
S11332E0CDB7DEB79A8389839091FE038091FD0365
S11332F0981711F480E017C08091FD0391E0980FB6
S11333009093FD03882F90E08C5F9B4FFC012081FC
S113331089819A81FC0120838091FD038A3010F019
S11333201092FD0381E00F900F90DF91CF910895EB
S1133330CF93DF9300D000D000D0CDB7DEB79E830B
S11333408D831A821982CE0103960E946D198823F7
S113335081F089819A819C012F5F3F4F3A832983B1
S11333609C018D819E81820F931F2B813C81FC01E6
S113337020838B819C810D9731F789819A810197F4
S11333802D813E81820F931FFC011082000026963E
S11333900FB6F894DEBF0FBECDBFDF91CF91089575
S11333A0CF93DF93CDB7DEB785EC90E0FC011082BC
S11333B084EC90E028E0FC01208380EC90E022E0A3
S11333C0FC01208381EC90E028EDFC01208382EC59
S11333D090E026E0FC01208381E080932801109294
S11333E0FD038091FD038093FE0380E08093FC0342
S11333F080938E04109203040000DF91CF9108950E
S11334000E94341A08F481E008950E94601A88F03A
S11334109F5798F0B92F9927B751B0F0E1F0660F94
S1133420771F881F991F1AF0BA95C9F714C0B130D5
S113343091F00E947A1AB1E008950C947A1A672FD9
S1133440782F8827B85F39F0B93FCCF38695779504
S11334506795B395D9F73EF49095809570956195ED
S11334607F4F8F4F9F4F0895990F0008550FAA0B58
S1133470E0E8FEEF16161706E807F907C0F0121683
S11334801306E407F50798F0621B730B840B950B86
S113349039F40A2661F0232B242B252B21F40895DB
S11334A00A2609F4A140A6958FEF811D811D089578
S11334B057FD9058440F551F59F05F3F71F04795E1
S11334C0880F97FB991F61F09F3F79F087950895C6
S11334D0121613061406551FF2CF4695F1DF08C0E5
S11334E0161617061806991FF1CF86957105610502
S11334F008940895E894BB2766277727CB0197F9AA
S113350008950E94341A08F48FEF08950E94991ABE
S11335100C940A1B0E94FC1A38F00E94031B20F032
S1133520952311F00C94F31A0C94F91A11240C94A9
S11335307B1A0E94581A70F3959FC1F3950F50E0BF
S1133540551F629FF001729FBB27F00DB11D639F51
S1133550AA27F00DB11DAA1F649F6627B00DA11DF7
S1133560661F829F2227B00DA11D621F739FB00D9D
S1133570A11D621F839FA00D611D221F749F33270D
S1133580A00D611D231F849F600D211D822F762FA6
S11335906A2F11249F5750409AF0F1F088234AF083
S11335A0EE0FFF1FBB1F661F771F881F91505040EF
S11335B0A9F79E3F510580F00C94F31A0C947B1AE2
S11335C05F3FE4F3983ED4F3869577956795B79576
S11335D0F795E7959F5FC1F7FE2B880F911D969590
S11335E0879597F9089597F99F6780E870E060E000
S11335F008959FEF80EC089500240A941616170688
S113360018060906089500240A94121613061406CF
S113361005060895092E0394000C11F4882352F032
S1133620BB0F40F4BF2B11F460FF04C06F5F7F4FEA
S11336308F4F9F4F0895DB018F939F930E945F1BD1
S1133640BF91AF91A29F800D911DA39F900DB29F3A
S1133650900D11240895052E97FB1EF400940E94EA
S1133660421B57FD07D00E946A1B07FC03D04EF48F
S11336700C94421B50954095309521953F4F4F4FE8
S11336805F4F089590958095709561957F4F8F4F0A
S11336909F4F0895EE0FFF1F0590F491E02D0994BC
S11336A0A29FB001B39FC001A39F700D811D11247F
S11336B0911DB29F700D811D1124911D08950E94CA
S11336C0501BA59F900DB49F900DA49F800D911D3C
S11336D011240895A1E21A2EAA1BBB1BFD010DC0E3
S11336E0AA1FBB1FEE1FFF1FA217B307E407F507AE
S11336F020F0A21BB30BE40BF50B661F771F881F8A
S1133700991F1A9469F760957095809590959B011F
S1133710AC01BD01CF010895F999FECF92BD81BDE1
S1133720F89A992780B50895262FF999FECF1FBAE4
S113373092BD81BD20BD0FB6F894FA9AF99A0FBED6
S10B374001960895F894FFCFEF
S11337483443485F44564D5F56303100303132338C
S1133758343536373839616263646566004C4344EE
S10937683E000A0D000002
S9030000FC
